:020000040800F2
:1000000000500020AD0A0008F30A0008F50A0008B5
:10001000F70A0008F90A0008FB0A000800000000BF
:10002000000000000000000000000000FD0A0008C1
:10003000FF0A000800000000010B0008DD010008B5
:10004000070B0008090B00080B0B00080D0B00083C
:100050000F0B0008110B0008130B0008150B00080C
:10006000170B0008190B00081B0B00081D0B0008DC
:100070001F0B0008210B0008230B0008250B0008AC
:10008000270B0008290B00082B0B00082D0B00087C
:100090002F0B0008310B0008330B0008350B00084C
:1000A000370B0008390B00083B0B00083D0B00081C
:1000B0003F0B0008410B0008430B0008450B0008EC
:1000C000470B0008490B00084B0B00084D0B0008BC
:1000D0004F0B0008D5030008530B000885030008E8
:1000E000570B0008590B00085B0B000810B5054CB6
:1000F000237833B9044B13B10448AFF300800123D4
:10010000237010BD8000002000000000800D00085A
:10011000084B10B51BB108490848AFF300800848E8
:10012000036803B910BD074B002BFBD0BDE810409E
:10013000184700BF0000000084000020800D000868
:100140008000002000000000154B002B08BF134B5F
:100150009D46A3F5803A00218B460F461348144A6A
:10016000121A00F0F3FD0F4B002B00D098470E4BF6
:10017000002B00D098470020002104000D000D48FE
:10018000002802D00C48AFF3008000F0B9FD200039
:10019000290000F075FC00F09FFD00BF0000080082
:1001A000005000200000000000000000800000203F
:1001B000A0020020000000000000000080B400AF9A
:1001C000054B6FF07F425A60034B07221A6000BF55
:1001D000BD4680BC704700BF10E000E080B400AFB7
:1001E000044B1B680133034A136000BFBD4680BC4B
:1001F000704700BF0000002080B483B000AF03460A
:10020000FB71084997F907305B09FA7902F01F0280
:10021000012000FA02F241F8232000BF0C37BD464E
:1002200080BC704700E100E080B588B000AF0346B5
:10023000FB80012144F2040000F06EFA4FF4964373
:100240003B610023BB820023FB8200233B8300230E
:10025000BB830C237B8307F110031946154800F07C
:1002600097FA012240F22551124800F06BFB25203D
:10027000FFF7C2FF01210F4800F044FB4FF4007369
:10028000BB810123BB731823FB7307F10C031946D1
:10029000094800F0C7F84FF48063BB812823FB7343
:1002A00007F10C031946044800F0BCF800BF2037E2
:1002B000BD4680BD003801400008014080B588B0CF
:1002C00000AF0346FB800121082000F025FA012140
:1002D0004FF4802000F03EFA4FF48063BB81182376
:1002E000FB730323BB7307F10C031946184800F096
:1002F00099F84FF40063BB810423FB7307F10C03EF
:100300001946134800F08EF8FB883B610023BB823E
:100310000023FB8200233B830023BB830C237B83CE
:1003200007F1100319460B4800F032FA012240F29F
:100330002551084800F006FB2720FFF75DFF01214B
:10034000044800F0DFFA00BF2037BD4680BD00BF83
:10035000000C01400048004080B584B000AF7860D8
:1003600000BF2021786800F045FB0346002BF8D041
:10037000786800F02FFB0346FB73FB7B18461037B1
:10038000BD4680BD80B582B000AF0F48FFF7E4FFE7
:100390000346FB710D4B1B7819460D4AFB795354EC
:1003A0000A4B1B780133DAB2084B1A70074B1B78E3
:1003B000013B074AD35C0A2B02D1044B00221A707E
:1003C00000BF0837BD4680BD004800409C000020AB
:1003D000A000002080B582B000AF0F48FFF7BCFF3F
:1003E0000346FB710D4B1B7819460D4AFB7953549C
:1003F0000A4B1B780133DAB2084B1A70074B1B7893
:10040000013B074AD35C0A2B02D1044B00221A702D
:1004100000BF0837BD4680BD003801409D00002068
:10042000A001002080B489B000AF7860396000235B
:10043000FB6100233B610023BB610023FB600023C1
:100440007B610023BB603B68DB7803F00F03FB613B
:100450003B68DB7803F01003002B05D03B689B78EA
:100460001A46FB691343FB613B681B88DBB2002B18
:1004700044D07B681B687B610023BB6138E00122AC
:10048000BB6902FA03F3FB603B681B881A46FB68F2
:1004900013403B613A69FB689A4226D1BB699B00D5
:1004A000FB600F22FB6802FA03F3BB60BB68DB430F
:1004B0007A6913407B61FA69FB6802FA03F37A698F
:1004C00013437B613B68DB78282B05D10122BB6994
:1004D0009A407B685A6108E03B68DB78482B04D17E
:1004E0000122BB699A407B681A61BB690133BB6119
:1004F000BB69072BC3D97B687A691A603B681B8884
:10050000FF2B46D97B685B687B610023BB613AE0C7
:10051000BB690833012202FA03F3FB603B681B88C6
:100520001A46FB6813403B613A69FB689A4227D13F
:10053000BB699B00FB600F22FB6802FA03F3BB6000
:10054000BB68DB437A6913407B61FA69FB6802FA96
:1005500003F37A6913437B613B68DB78282B05D171
:10056000BB69083301229A407B685A613B68DB789B
:10057000482B05D1BB69083301229A407B681A6178
:10058000BB690133BB61BB69072BC1D97B687A6941
:100590005A6000BF2437BD4680BC704780B483B02A
:1005A00000AF78600B467B807A887B685A6100BF19
:1005B0000C37BD4680BC704780B487B000AF786010
:1005C00000237B6100233B610023FB600023BB60B1
:1005D0004C4B5B6803F00C037B617B69042B07D0F9
:1005E000082B09D0002B33D17B68474A1A6033E0CF
:1005F0007B68454A1A602FE0424B5B6803F4701336
:100600003B61404B5B6803F48033FB603B699B0CB0
:1006100002333B61FB68002B06D13B693B4A02FB7E
:1006200003F27B681A6017E0364B5B6803F4003313
:10063000002B06D03B69354A02FB03F27B681A6047
:100640000AE03B69304A02FB03F27B681A6003E070
:100650007B682D4A1A6000BF2A4B5B6803F0F003E9
:100660007B617B691B097B61294A7B6913441B7889
:10067000DBB2BB607B681A68BB68DA407B685A6093
:10068000204B5B6803F4E0637B617B691B0A7B6141
:100690001F4A7B6913441B78DBB2BB607B685A68D6
:1006A000BB68DA407B689A60164B5B6803F4605362
:1006B0007B617B69DB0A7B61154A7B6913441B788C
:1006C000DBB2BB607B685A68BB68DA407B68DA6083
:1006D0000C4B5B6803F440437B617B699B0B7B6144
:1006E0000C4A7B6913441B78DBB2BB607B68DA6819
:1006F000BB68B2FBF3F27B681A6100BF1C37BD46D2
:1007000080BC70470010024000127A0000093D00D2
:10071000040000201400002080B483B000AF786093
:100720000B46FB70FB78002B06D00949084B9A69F1
:100730007B6813438B6106E00549054B9A697B682A
:10074000DB4313408B6100BF0C37BD4680BC704754
:100750000010024080B483B000AF78600B46FB709D
:10076000FB78002B06D00949084BDA697B681343F4
:10077000CB6106E00549054BDA697B68DB43134032
:10078000CB6100BF0C37BD4680BC704700100240F3
:1007900080B58CB000AF786039600023FB62002325
:1007A000BB6200237B6200233B620023FB617B680A
:1007B000FB617B681B8A9BB2FB62FA6A4CF6FF7393
:1007C0001340FB623B68DB881A46FB6A1343FB62FB
:1007D000FB6A9AB27B681A827B689B899BB2FB6238
:1007E000FA6A4EF6F3131340FB623B689A883B6843
:1007F0001B8913439AB23B685B8913439BB21A4629
:10080000FB6A1343FB62FB6A9AB27B689A817B683E
:100810009B8A9BB2FB62FA6A4FF6FF431340FB626E
:100820003B689B891A46FB6A1343FB62FB6A9AB2D8
:100830007B689A8207F108031846FFF7BDFEFB6943
:100840002E4A934202D17B69BB6201E03B69BB62E5
:100850007B689B899BB21BB2002B0CDABA6A1346E9
:100860009B0013449A001A443B681B685B00B2FB70
:10087000F3F37B620BE0BA6A13469B0013449A00C1
:100880001A443B681B689B00B2FBF3F37B627B6AF4
:100890001B4AA2FB03235B091B01FB62FB6A1B09CA
:1008A000642202FB03F37A6AD31A3B627B689B895A
:1008B0009BB21BB2002B0CDA3B6ADB003233104ACE
:1008C000A2FB03235B0903F00703FA6A1343FB62ED
:1008D0000BE03B6A1B013233094AA2FB03235B098D
:1008E00003F00F03FA6A1343FB62FB6A9AB27B6858
:1008F0001A8100BF3037BD4680BD00BF00380140BF
:100900001F85EB5180B483B000AF78600B46FB705D
:10091000FB78002B08D07B689B899BB243F4005383
:100920009AB27B689A8107E07B689B899BB223F42B
:1009300000539AB27B689A8100BF0C37BD4680BCD9
:10094000704700BF80B487B000AF78600B467B80F3
:1009500013467B7000233B610023FB600023BB60D8
:1009600000237B617B687B617B88DBB25B09DBB248
:100970003B617B8803F01F03FB600122FB6802FAE6
:1009800003F3BB603B69012B03D17B690C337B61B3
:1009900009E03B69022B03D17B6910337B6102E0E4
:1009A0007B6914337B617B78002B06D07B697A6985
:1009B0001168BA680A431A6006E07B697A691168AF
:1009C000BA68D2430A401A6000BF1C37BD4680BCDB
:1009D000704700BF80B483B000AF78607B689B88AD
:1009E0009BB2C3F308039BB218460C37BD4680BCCC
:1009F000704700BF80B485B000AF78600B467B8045
:100A00000023FB737B681B889AB27B8813409BB2E0
:100A1000002B02D00123FB7301E00023FB73FB7B5F
:100A200018461437BD4680BC704700BF80B582B001
:100A300000AF01211020FFF76FFE1023FB714FF470
:100A40000053BB800123BB713B1D19460A48FFF7C9
:100A5000E9FC01210420FFF75FFE4823FB7101231D
:100A6000BB800123BB713B1D19460448FFF7DAFC2C
:100A700000BF0837BD4680BD00100140000801409E
:100A800080B500AFFFF79AFBFFF7D0FF4FF4964019
:100A9000FFF7CAFB4FF49640FFF710FC4FF40051EC
:100AA0000148FFF77BFDFEE7001001400649074AB9
:100AB000074B9A42BEBF51F8040B42F8040BF8E70B
:100AC00004488047044800478C0D000800000020BF
:100AD00080000020650B0008490100081F49204ADA
:100AE000002301E041F8043B9142FBD3FFF7C8FF2C
:100AF000FEE7FEE7FEE7FEE7FEE7FEE7FEE7FEE7CE
:100B0000FEE7FEE7FEE7FEE7FEE7FEE7FEE7FEE7BD
:100B1000FEE7FEE7FEE7FEE7FEE7FEE7FEE7FEE7AD
:100B2000FEE7FEE7FEE7FEE7FEE7FEE7FEE7FEE79D
:100B3000FEE7FEE7FEE7FEE7FEE7FEE7FEE7FEE78D
:100B4000FEE7FEE7FEE7FEE7FEE7FEE7FEE7FEE77D
:100B5000FEE7FEE7FEE7FEE7FEE7FEE78000002097
:100B6000A002002080B500AF154A154B1B6843F06A
:100B7000010313601249124B5A68124B13404B6029
:100B80000F4A0F4B1B6823F0847323F480331360E8
:100B90000B4A0B4B1B6823F480231360084A084B55
:100BA0005B6823F4FE035360054B4FF41F029A6009
:100BB00000F00CF8044B4FF000629A6000BF80BD5B
:100BC000001002400000FFF800ED00E080B500AF2B
:100BD00000F002F800BF80BD80B483B000AF0023F6
:100BE0007B6000233B603A4A394B1B6843F48033F7
:100BF0001360374B1B6803F400333B607B680133A1
:100C00007B603B68002B03D17B68B3F5A06FF0D10C
:100C10002F4B1B6803F40033002B02D001233B60F1
:100C200001E000233B603B68012B4BD1294A294B53
:100C30001B6843F010031360264A264B1B6823F001
:100C400003031360234A234B1B6843F00203136022
:100C50001F4A1F4B5B6853601D4A1D4B5B68536006
:100C60001B4A1B4B5B6843F480635360184A184B64
:100C70005B6823F47C135360154A154B5B6843F49F
:100C8000E8135360124A124B1B6843F080731360E1
:100C900000BF0F4B1B6803F00073002BF9D00C4A08
:100CA0000B4B5B6823F003035360094A084B5B68F6
:100CB00043F00203536000BF054B5B6803F00C0375
:100CC000082BF9D100BF0C37BD4680BC704700BF70
:100CD000001002400020024008B5074B044613B143
:100CE0000021AFF30080054B1868836A03B1984771
:100CF000204600F033F800BF000000007C0D000823
:100D00000E4B70B51E460E4C0025E41AA410A542E9
:100D100004D056F8253098470135F8E700F020F860
:100D2000084B094C1E46E41AA4100025A54204D025
:100D300056F8253098470135F8E770BD7800002057
:100D400078000020780000207C0000200346024448
:100D5000934202D003F8011BFAE77047FEE7000058
:100D6000F8B500BFF8BC08BC9E467047F8B500BF98
:100D7000F8BC08BC9E4670474300000018000020E5
:040D8000000000006F
:080D8400C4F3FF7F0100000031
:100D8C000100000000000000010203040102030442
:100D9C000607080902040608000000000000000015
:100DAC000000000000000000000000000000000037
:100DBC000000000000000000780D0008000000009A
:100DCC000000000000000000000000000000000017
:100DDC000000000000000000000000000000000007
:100DEC0000000000000000000000000000000000F7
:100DFC00000000000000000011010008ED000008D8
:0400000508000000EF
:00000001FF
