:020000040800F2
:10000000005000205D130008A3130008A51300088A
:10001000A7130008A9130008AB1300080000000094
:10002000000000000000000000000000AD13000808
:10003000AF13000800000000B1130008DD01000844
:10004000B7130008B9130008BB130008BD1300085C
:10005000BF130008C1130008C3130008C51300082C
:10006000C7130008C9130008CB130008CD130008FC
:10007000CF130008D1130008D3130008D5130008CC
:10008000D7130008D9130008DB130008DD1300089C
:10009000DF130008E1130008E3130008E51300086C
:1000A000E7130008E9130008EB130008ED1300083C
:1000B000590E0008F1130008F3130008F5130008A7
:1000C000F7130008F9130008FB130008FD130008DC
:1000D000FF13000885040008031400083504000815
:1000E00007140008091400080B14000810B5054C8B
:1000F000237833B9044B13B10448AFF300800123D4
:10010000237010BD84000020000000008C2900082E
:10011000084B10B51BB108490848AFF300800848E8
:10012000036803B910BD074B002BFBD0BDE810409E
:10013000184700BF00000000880000208C2900083C
:100140008400002000000000154B002B08BF134B5B
:100150009D46A3F5803A00218B460F461348144A6A
:10016000121A01F04BFA0F4B002B00D098470E4BA0
:10017000002B00D098470020002104000D000D48FE
:10018000002802D00C48AFF3008001F011FA2000E3
:10019000290000F0D3FF01F0F7F900BF00000800CC
:1001A000005000200000000000000000840000203B
:1001B000BC020020000000000000000080B400AF7E
:1001C000054B6FF07F425A60034B07221A6000BF55
:1001D000BD4680BC704700BF10E000E080B400AFB7
:1001E000044B1B680133034A136000BFBD4680BC4B
:1001F000704700BF0000002080B483B000AF03460A
:10020000FB71084997F907305B09FA7902F01F0280
:10021000012000FA02F241F8232000BF0C37BD464E
:1002200080BC704700E100E080B588B000AF0346B5
:10023000FB80012144F2040000F050FBFB883B618D
:100240000023BB820023FB8200233B830023BB836C
:100250000C237B8307F110031946164800F066FC57
:10026000012240F22551134800F03AFD2520FFF706
:10027000C3FF01210F4800F013FD4FF40073BB8151
:100280000123BB731823FB7307F10C0319460A48BB
:1002900000F082F94FF48063BB810423FB7307F104
:1002A0000C031946044800F077F900BF2037BD461B
:1002B00080BD00BF003801400008014080B487B015
:1002C00000AFF860B9607A607B687B6111E000BFC5
:1002D0000C4B1B889BB203F08003002BF8D009491C
:1002E000BB685A1CBA601B789BB28B807B69013B50
:1002F0007B617B69002BEAD17B6818461C37BD46C1
:1003000080BC70470038014080B588B000AF78608D
:100310000121082000F0E2FA01214FF4802000F0D2
:10032000FBFA4FF48063BB811823FB730323BB7379
:1003300007F10C031946184800F02EF94FF400633A
:10034000BB810423FB7307F10C031946124800F02C
:1003500023F97B683B610023BB820023FB820023DF
:100360003B830023BB830C237B8307F110031946D7
:100370000A4800F0DBFB012240F22551074800F05B
:10038000AFFC2720FFF738FF0121044800F088FC6C
:1003900000BF2037BD4680BD000C01400048004032
:1003A00080B582B000AF78600B46FB707B6800229E
:1003B0009A80FB789BB21946786800F0D9FC00BFA0
:1003C0008021786800F0F6FC0346002BF8D000BFCF
:1003D0000837BD4680BD00BF80B582B000AF7860F1
:1003E000396008E03B681B7819467868FFF7D8FF4A
:1003F0003B6801333B603B681B78002BF2D100BFA8
:100400000837BD4680BD00BF80B584B000AF7860BE
:1004100000BF2021786800F0CDFC0346002BF8D007
:10042000786800F0B7FC0346FB73FB7B1846103777
:10043000BD4680BD80B582B000AF0F48FFF7E4FF36
:100440000346FB710D4B1B7819460D4AFB7953543B
:100450000A4B1B780133DAB2084B1A70074B1B7832
:10046000013B074AD35C0A2B02D1044B00221A70CD
:1004700000BF0837BD4680BD00480040A0000020F6
:10048000B800002080B582B000AF0F48FFF7BCFF76
:100490000346FB710D4B1B7819460D4AFB795354EB
:1004A0000A4B1B780133DAB2084B1A70074B1B78E2
:1004B000013B074AD35C0A2B02D1044B00221A707D
:1004C00000BF0837BD4680BD00380140A1000020B4
:1004D000B801002080B487B000AF786000237B6152
:1004E00000233B610F23FB607B68DB78002B3AD055
:1004F000274BDB68DB4303F4E0631B0A7B617B690A
:10050000C3F104033B61FA687B6922FA03F3FB60E1
:100510007B685B781A463B6902FA03F37B617B6870
:100520009B781A46FB6813407A6913437B617B69A9
:100530001B017B61174A7B681B787969C9B2134438
:100540000A4683F80023134A7B681B785B09DBB2F9
:1005500018467B681B7803F01F03012101FA03F39F
:1005600042F820300FE00B497B681B785B09DBB257
:1005700018467B681B7803F01F0301229A4000F1A4
:10058000200341F8232000BF1C37BD4680BC7047C4
:1005900000ED00E000E100E080B489B000AF7860D9
:1005A00039600023FB6100233B610023BB61002312
:1005B000FB6000237B610023BB603B68DB7803F0BA
:1005C0000F03FB613B68DB7803F01003002B05D0C1
:1005D0003B689B781A46FB691343FB613B681B88A9
:1005E000DBB2002B44D07B681B687B610023BB61BE
:1005F00038E00122BB6902FA03F3FB603B681B8809
:100600001A46FB6813403B613A69FB689A4226D15F
:10061000BB699B00FB600F22FB6802FA03F3BB601F
:10062000BB68DB437A6913407B61FA69FB6802FAB5
:1006300003F37A6913437B613B68DB78282B05D190
:100640000122BB699A407B685A6108E03B68DB780D
:10065000482B04D10122BB699A407B681A61BB69AF
:100660000133BB61BB69072BC3D97B687A691A6008
:100670003B681B88FF2B46D97B685B687B61002346
:10068000BB613AE0BB690833012202FA03F3FB6065
:100690003B681B881A46FB6813403B613A69FB685C
:1006A0009A4227D1BB699B00FB600F22FB6802FACC
:1006B00003F3BB60BB68DB437A6913407B61FA6973
:1006C000FB6802FA03F37A6913437B613B68DB78CA
:1006D000282B05D1BB69083301229A407B685A61F7
:1006E0003B68DB78482B05D1BB69083301229A406F
:1006F0007B681A61BB690133BB61BB69072BC1D938
:100700007B687A695A6000BF2437BD4680BC704759
:1007100080B485B000AF78600B467B800023FB730C
:100720007B689A687B881340002B02D00123FB73FF
:1007300001E00023FB73FB7B18461437BD4680BCE9
:10074000704700BF80B483B000AF78600B467B80F9
:100750007A887B681A6100BF0C37BD4680BC704741
:1007600080B483B000AF78600B467B807A887B686A
:100770005A6100BF0C37BD4680BC704780B487B05B
:1007800000AF786000237B6100233B610023FB60A6
:100790000023BB604C4B5B6803F00C037B617B69FF
:1007A000042B07D0082B09D0002B33D17B68474A94
:1007B0001A6033E07B68454A1A602FE0424B5B6861
:1007C00003F470133B61404B5B6803F48033FB60C0
:1007D0003B699B0C02333B61FB68002B06D13B69F4
:1007E0003B4A02FB03F27B681A6017E0364B5B68FA
:1007F00003F40033002B06D03B69354A02FB03F2B9
:100800007B681A600AE03B69304A02FB03F27B68AE
:100810001A6003E07B682D4A1A6000BF2A4B5B68B0
:1008200003F0F0037B617B691B097B61294A7B69CB
:1008300013441B78DBB2BB607B681A68BB68DA4084
:100840007B685A60204B5B6803F4E0637B617B69E3
:100850001B0A7B611F4A7B6913441B78DBB2BB60B8
:100860007B685A68BB68DA407B689A60164B5B68A5
:1008700003F460537B617B69DB0A7B61154A7B690A
:1008800013441B78DBB2BB607B685A68BB68DA40F4
:100890007B68DA600C4B5B6803F440437B617B69E7
:1008A0009B0B7B610C4A7B6913441B78DBB2BB60FA
:1008B0007B68DA68BB68B2FBF3F27B681A6100BF41
:1008C0001C37BD4680BC70470010024000127A0001
:1008D00000093D00040000201400002080B483B013
:1008E00000AF78600B46FB70FB78002B06D00949FF
:1008F000084B9A697B6813438B6106E00549054BF9
:100900009A697B68DB4313408B6100BF0C37BD469F
:1009100080BC70470010024080B483B000AF7860A4
:100920000B46FB70FB78002B06D00949084BDA69AF
:100930007B681343CB6106E00549054BDA697B68A8
:10094000DB431340CB6100BF0C37BD4680BC704712
:100950000010024080B485B000AF78603960002399
:10096000FB817B681B88FB817B682E4A934213D0F6
:100970007B682D4A93420FD07B68B3F1804F0BD038
:100980007B682A4A934207D07B68294A934203D066
:100990007B68284A934208D1FB8923F07003FB81CE
:1009A0003B685A88FB891343FB817B68224A934248
:1009B0000CD07B68214A934208D0FB8923F4407312
:1009C000FB813B68DA88FB891343FB817B68FA89EA
:1009D0001A803B689A887B689A853B681A887B688E
:1009E0001A857B680F4A93420FD07B680E4A934268
:1009F0000BD07B68124A934207D07B68114A93421E
:100A000003D07B68104A934204D13B681B7A9AB2A8
:100A10007B681A867B6801229A8200BF1437BD4624
:100A200080BC7047002C01400034014000040040AD
:100A300000080040000C004000100040001400407E
:100A400000400140004401400048014080B483B0B0
:100A500000AF78600B46FB70FB78002B08D07B68FA
:100A60001B889BB243F001039AB27B681A8007E0AF
:100A70007B681B889BB223F001039AB27B681A80C3
:100A800000BF0C37BD4680BC704700BF80B483B048
:100A900000AF78600B467B8013467B707B78002B21
:100AA00008D07B689B899AB27B8813439AB27B6893
:100AB0009A8109E07B689B899AB27B88DB439BB271
:100AC00013409AB27B689A8100BF0C37BD4680BC48
:100AD000704700BF80B485B000AF78600B467B8064
:100AE0000023FB737B681B8A9AB27B8813409BB2FE
:100AF000002B02D00123FB7301E00023FB73FB7B7F
:100B000018461437BD4680BC704700BF80B483B020
:100B100000AF78600B467B807B88DB439AB27B68B2
:100B20001A8200BF0C37BD4680BC704780B58CB0C0
:100B300000AF786039600023FB620023BB620023B2
:100B40007B6200233B620023FB617B68FB617B6867
:100B50001B8A9BB2FB62FA6A4CF6FF731340FB627E
:100B60003B68DB881A46FB6A1343FB62FB6A9AB256
:100B70007B681A827B689B899BB2FB62FA6A4EF69D
:100B8000F3131340FB623B689A883B681B8913434D
:100B90009AB23B685B8913439BB21A46FB6A1343C4
:100BA000FB62FB6A9AB27B689A817B689B8A9BB2E4
:100BB000FB62FA6A4FF6FF431340FB623B689B8976
:100BC0001A46FB6A1343FB62FB6A9AB27B689A82FD
:100BD00007F108031846FFF7D1FDFB692E4A93423F
:100BE00002D17B69BB6201E03B69BB627B689B8988
:100BF0009BB21BB2002B0CDABA6A13469B0013445B
:100C00009A001A443B681B685B00B2FBF3F37B62FB
:100C10000BE0BA6A13469B0013449A001A443B68DF
:100C20001B689B00B2FBF3F37B627B6A1B4AA2FB4F
:100C300003235B091B01FB62FB6A1B09642202FBA5
:100C400003F37A6AD31A3B627B689B899BB21BB21F
:100C5000002B0CDA3B6ADB003233104AA2FB032381
:100C60005B0903F00703FA6A1343FB620BE03B6A7C
:100C70001B013233094AA2FB03235B0903F00F0374
:100C8000FA6A1343FB62FB6A9AB27B681A8100BF5F
:100C90003037BD4680BD00BF003801401F85EB5195
:100CA00080B483B000AF78600B46FB70FB78002BFC
:100CB00008D07B689B899BB243F400539AB27B684F
:100CC0009A8107E07B689B899BB223F400539AB218
:100CD0007B689A8100BF0C37BD4680BC704700BF5F
:100CE00080B487B000AF78600B467B8013467B7082
:100CF00000233B610023FB600023BB6000237B617A
:100D00007B687B617B88DBB25B09DBB23B617B8804
:100D100003F01F03FB600122FB6802FA03F3BB60D0
:100D20003B69012B03D17B690C337B6109E03B6993
:100D3000022B03D17B6910337B6102E07B691433A2
:100D40007B617B78002B06D07B697A691168BA6871
:100D50000A431A6006E07B697A691168BA68D2436F
:100D60000A401A6000BF1C37BD4680BC704700BFF8
:100D700080B483B000AF78600B467B807B88C3F380
:100D800008039AB27B689A8000BF0C37BD4680BCCE
:100D9000704700BF80B483B000AF78607B689B88E9
:100DA0009BB2C3F308039BB218460C37BD4680BC08
:100DB000704700BF80B485B000AF78600B467B8081
:100DC0000023FB737B681B889AB27B8813409BB21D
:100DD000002B02D00123FB7301E00023FB73FB7B9C
:100DE00018461437BD4680BC704700BF80B584B03C
:100DF00000AF01210120FFF78FFD41F61F43BB80AB
:100E000042F20F733B810023FB803B1D19464FF0DC
:100E10008040FFF79FFD01214FF08040FFF776FEF5
:100E2000012201214FF08040FFF730FE01214FF0F9
:100E30008040FFF70BFE1C233B700123FB70002357
:100E40007B700023BB703B461846FFF743FB00BF97
:100E50001037BD4680BD00BF80B500AF01214FF007
:100E60008040FFF737FE0346002B35D01B4B1B7825
:100E7000DBB20133DAB2194B1A70194B1B78DBB2B3
:100E80000133DAB2164B1A70144B1B78DBB2012B0C
:100E900002D1144B00221A70104B1B78DBB2032BCB
:100EA00002D1114B00221A700C4B1B78DBB2052BC0
:100EB00002D10E4B00221A70084B1B78DBB20A2BB2
:100EC00005D90B4B00221A70044B00221A70012125
:100ED0004FF08040FFF71AFE00BF80BDA300002046
:100EE000A4000020A6000020A7000020A8000020E9
:100EF000A500002080B582B000AF01211020FFF7CF
:100F0000EDFC1023FB714FF40053BB800123BB7138
:100F10003B1D19461048FFF73FFB01210420FFF756
:100F2000DDFC4823FB710123BB800123BB713B1D0A
:100F300019460A48FFF730FB1023FB714FF4E073AA
:100F4000BB800123BB713B1D19460448FFF724FBFE
:100F500000BF0837BD4680BD0010014000080140B9
:100F600080B586B000AFF8600B467A607B817B89E4
:100F70001946F868FFF7CCFB0346012B01D101238A
:100F8000FB757B891946F868FFF7C2FB0346002B07
:100F900007D1FB7D002B04D00023FB757B68012269
:100FA0001A7000BF1837BD4680BD00BF80B58AB03B
:100FB00000AFF860B9607A603B60FB68002B56D0E8
:100FC000BB68002B53D07B68002B50D03B68002BB4
:100FD0004DD03B6B002B4AD0FB687B627B6A3B6247
:100FE0002C21386A00F04EFB78627B6A002B06D019
:100FF0007B6A00221A70396AB86800F051FB7B6A7C
:101000000133FB612C21F86900F03CFB78627B6ABC
:10101000002B06D07B6A00221A70F969786800F00C
:101020003FFB7B6A0133BB612C21B86900F02AFBCE
:1010300078627B6A002B06D07B6A00221A70B9693D
:10104000386800F02DFB7B6A01337B612C217869C5
:1010500000F018FB78627B6A002B06D07B6A0022C6
:101060001A707969386B00F01BFB012300E0002344
:1010700018462837BD4680BD80B584B002AF786081
:1010800079687B685A1D7B6803F117007B681B3306
:1010900000930346034800F0B9FA00BF0837BD4685
:1010A00080BD00BF9828000880B588B000AF4021FF
:1010B0001C48FFF755FB1C4A01211A48FFF750FF57
:1010C00023E01A4A3B4692E8030018600433197083
:1010D000174B1B6823F07F423B46053315491846E2
:1010E00000F0ACFA144A07F11703106818603B4689
:1010F0001B330E4A1068186012791A713B46184665
:10110000FFF7BAFF084B00221A70074B1B78002B21
:10111000D7D140210348FFF715FB00BF2037BD465C
:1011200080BD00BF00080140A2000020A8280008E0
:10113000E8F7FF1FB0280008B428000880B594B075
:1011400002AFFFF73BF8FFF751FEFFF7D3FE4FF476
:101150001650FFF769F84FF4E130FFF7D5F840215A
:101160006F48FFF7EFFA4FF480716D48FFF7EAFA26
:1011700080216B48FFF7F4FA6A4B1B6823F07F422B
:1011800007F120036849184600F058FAFFF78CFF72
:10119000664B1B78DBB20A2B15D1654B1B78DBB293
:1011A00083F00103DBB2002B0DD05E4B1B6823F0F4
:1011B0007F4319465F4800F029FA5D4B01221A70FF
:1011C0005A4B00221A70594B1B78DBB2012B44D1C9
:1011D000594B1B78DBB283F00103DBB2002B3CD010
:1011E00007F1300007F1380207F1400107F1280349
:1011F000009303465148FFF7D9FE07F140035049D9
:10120000184600F055FA0346002B26D007F12002BD
:1012100007F138031146184600F04AFA0346002B3E
:101220001BD007F1380107F14002384607F12803C7
:10123000019307F1300300930B46424900F0FEF999
:101240003B4619464048FFF7C7F83B4B01221A704E
:1012500040220021394800F0D1F9344B1B78DBB231
:10126000032B0ED1394B1B78DBB283F00103DBB2C9
:10127000002B06D036493448FFF7AEF8334B012235
:101280001A702A4B1B78DBB2052B7FF47FAF314BF2
:101290001B78DBB283F00103DBB2002B3FF476AFA7
:1012A00007F1300007F1380207F1400107F1280388
:1012B000009303462148FFF779FE07F140032649D2
:1012C000184600F0F5F90346002B3FF45FAF07F135
:1012D000200207F138031146184600F0E9F90346E9
:1012E000002B3FF453AF07F1380107F140023846B5
:1012F00007F12803019307F1300300930B461149CE
:1013000000F09CF93B4619460F48FFF765F8114B72
:1013100001221A7040220021084800F06FF935E7D9
:1013200000080140E8F7FF1FB0280008A3000020D4
:10133000A5000020B8280008A6000020B801002061
:10134000CC280008D428000800480040A70000204E
:10135000E4280008A8000020EC2800080649074AF5
:10136000074B9A42BEBF51F8040B42F8040BF8E752
:1013700004488047044800479829000800000020DE
:101380008400002015140008490100081F49204A64
:10139000002301E041F8043B9142FBD3FFF7CEFE6E
:1013A000FEE7FEE7FEE7FEE7FEE7FEE7FEE7FEE715
:1013B000FEE7FEE7FEE7FEE7FEE7FEE7FEE7FEE705
:1013C000FEE7FEE7FEE7FEE7FEE7FEE7FEE7FEE7F5
:1013D000FEE7FEE7FEE7FEE7FEE7FEE7FEE7FEE7E5
:1013E000FEE7FEE7FEE7FEE7FEE7FEE7FEE7FEE7D5
:1013F000FEE7FEE7FEE7FEE7FEE7FEE7FEE7FEE7C5
:10140000FEE7FEE7FEE7FEE7FEE7FEE784000020DA
:10141000BC02002080B500AF154A154B1B6843F095
:10142000010313601249124B5A68124B13404B6070
:101430000F4A0F4B1B6823F0847323F4803313602F
:101440000B4A0B4B1B6823F480231360084A084B9C
:101450005B6823F4FE035360054B4FF41F029A6050
:1014600000F00CF8044B4FF000629A6000BF80BDA2
:10147000001002400000FFF800ED00E080B500AF72
:1014800000F002F800BF80BD80B483B000AF00233D
:101490007B6000233B603A4A394B1B6843F480333E
:1014A0001360374B1B6803F400333B607B680133E8
:1014B0007B603B68002B03D17B68B3F5A06FF0D154
:1014C0002F4B1B6803F40033002B02D001233B6039
:1014D00001E000233B603B68012B4BD1294A294B9B
:1014E0001B6843F010031360264A264B1B6823F049
:1014F00003031360234A234B1B6843F0020313606A
:101500001F4A1F4B5B6853601D4A1D4B5B6853604D
:101510001B4A1B4B5B6843F480635360184A184BAB
:101520005B6823F47C135360154A154B5B6843F4E6
:10153000E8135360124A124B1B6843F08073136028
:1015400000BF0F4B1B6803F00073002BF9D00C4A4F
:101550000B4B5B6823F003035360094A084B5B683D
:1015600043F00203536000BF054B5B6803F00C03BC
:10157000082BF9D100BF0C37BD4680BC704700BFB7
:10158000001002400020024008B5074B044613B18A
:101590000021AFF30080054B1868836A03B19847B8
:1015A000204601F06BF900BF00000000F42800089D
:1015B0000E4B70B51E460E4C0025E41AA410A54231
:1015C00004D056F8253098470135F8E701F058F96E
:1015D000084B094C1E46E41AA4100025A54204D06D
:1015E00056F8253098470135F8E770BD7C0000209B
:1015F0007C0000207C000020800000200346024484
:10160000934202D003F8011BFAE770470FB40A4B6C
:1016100013B51C6824B1A36913B9204600F0A2F8E1
:1016200005AB049AA1682046019300F0F9FA02B0D4
:10163000BDE8104004B07047780000200EB400B53B
:101640004FF402719CB0ADF814106FF0004104919A
:1016500007914FF6FF711DAB02900690084853F8B2
:10166000042BADF81610006802A9019300F0BCF934
:10167000029B00221A701CB05DF804EB03B07047A7
:1016800078000020C9B2034610F8012B1AB191422C
:10169000F9D11846704700290CBF18460020704742
:1016A000034611F8012B03F8012B002AF9D17047EA
:1016B000F0B5037863B90B78002B18BF0020F0BD9C
:1016C00015F8012F62B114F8017F30469742F7D028
:1016D0000346461C007810B14D1E5C1EF0E7F0BDBD
:1016E0001846F0BD014900F0A9B800BF0D2500085B
:1016F00010B5044600230360436083608181436624
:10170000C281036143618361194608225C30FFF79F
:1017100075FF054B24626362044BA362044BE362D2
:10172000044B236310BD00BFB1210008D321000882
:101730000B2200082F22000870B568234D1E5D4360
:101740000E4605F1740100F097F8044640B10021FF
:1017500080E842000C30A06005F16802FFF74EFF00
:10176000204670BD836910B5044633BB8364C364EF
:101770000365124B124A1B688262984204BF012320
:10178000836100F01FF86060204600F01BF8A06045
:10179000204600F017F80022E06004216068FFF79F
:1017A000A7FF01220921A068FFF7A2FF0222122150
:1017B000E068FFF79DFF0123A36110BDF428000836
:1017C000E5160008F8B51C4B07461E68B36913B947
:1017D0003046FFF7C7FF4836B4687368013B04D44E
:1017E000B4F90C507DB16834F8E733680BB1366852
:1017F000F2E704213846FFF79FFF30600028F6D15A
:101800000C233B60F8BD4FF6FF73E3810123A381F6
:1018100065662560A560656025616561A561082232
:10182000294604F15C00FFF7E9FE6563A563A56442
:10183000E5642046F8BD00BFF42800082DE9F84310
:101840008046894600F14804002694B1A56867687F
:10185000013F0CD4AB89012B07D9B5F90E30013308
:1018600003D029464046C84706436835F0E7246858
:10187000EBE73046BDE8F88370B5CD1C25F00305D5
:1018800008350C2D38BF0C25002D064601DBA9427A
:1018900002D90C23336046E000F008FF234B1C689C
:1018A0001A462146A1B10B685B1B0ED40B2B03D942
:1018B0000B60CC18CD501EE08C420BBF63684B68A8
:1018C0001360636018BF0C4615E00C464968E9E7F1
:1018D000174C23681BB9304600F05AFC206029469B
:1018E000304600F055FC431C18D0C41C24F00304FF
:1018F000A0420DD12560304600F0D9FE04F10B0066
:10190000231D20F00700C31A0ED05A42E25070BDCA
:10191000211A304600F03CFC0130EBD10C2333603F
:10192000304600F0C4FE002070BD00BFB0000020B3
:10193000AC0000202DE9F0478E6882469E420C469E
:10194000914698463ED88A8912F4906F3AD025681D
:10195000096902236F1A656905EB450595FBF3F5E7
:101960007B1C43449D4238BF1D4653050FD5294675
:10197000FFF782FF064698B13A46216900F070FEF3
:10198000A38923F4906343F08003A38113E02A46E4
:1019900000F0DAFE064670B92169504600F088FE74
:1019A0000C23CAF80030A3894FF0FF3043F0400306
:1019B000A381BDE8F08726613E4426604646656106
:1019C000ED1BA560464528BF46464946324620687D
:1019D00000F051FEA36800209B1BA36023681E44F7
:1019E0002660BDE8F08700002DE9F04F9DB003931D
:1019F0008B8980461C060D4616460DD50B695BB9D2
:101A00004021FFF739FF2860286118B90C23C8F876
:101A10000030CDE040236B610023099320238DF833
:101A20002930DFF89CB130238DF82A3037463C4608
:101A300014F8013B1BB9B7EB060910D003E0252BC6
:101A4000F9D02746F3E74B46324629464046FFF792
:101A500071FF013000F0A780099B4B4409933B784C
:101A6000002B00F0A08000234FF0FF320493079377
:101A7000059206938DF853301A930126052221789A
:101A80004E4800F0DFFD671C049B38B14B4A3C46D2
:101A9000801A06FA00F018430490EFE7D90644BF15
:101AA00020228DF853201A0744BF2B228DF8532093
:101AB00022782A2A03D0079A00210A200BE0039AF1
:101AC000111D12680391002A10DA524243F00200FD
:101AD000079204900BE027463B780134303B092BFA
:101AE00003D800FB02320121F5E701B107923B78F0
:101AF0002E2B1ED17B782A2B0AD1039B02371A1D6D
:101B00001B680392002BB8BF4FF0FF33059310E022
:101B1000002319460593781C0A2407463A780130B9
:101B2000303A092A03D804FB01210123F5E703B168
:101B3000059103223978224800F084FD40B140230A
:101B4000CBEB000003FA00F0049B0137184304902C
:101B5000397806221B487E1C8DF8281000F072FD93
:101B600088B1194B33B9039B073323F007030833BC
:101B7000039314E003AB00932A46144B04A9404698
:101B8000AFF3008007E003AB00932A460F4B04A994
:101B9000404600F0D7F9B0F1FF3F824603D0099BE1
:101BA0005344099342E7AB895B0601D4099801E0ED
:101BB0004FF0FF301DB0BDE8F08F00BF582900087E
:101BC0005E2900086229000800000000351900089D
:101BD000936810B4013B002B936008DA9469A34228
:101BE00002DBCBB20A2B02D110BC00F025BB13687C
:101BF000581C10601970C8B210BC7047F8B5064682
:101C00000F461446D518AC4208D03A4614F8011BCA
:101C10003046FFF7DDFF431CF5D100E00020F8BDA2
:101C20002DE9F04F9DB00C4617460393064618B1B8
:101C300083690BB9FFF796FD7F4B9C4201D1746815
:101C400008E07E4B9C4201D1B46803E07C4B9C428F
:101C500008BFF468A38918070CD5236953B1002382
:101C6000099320238DF8293030238DF82A30DFF8AE
:101C7000D4B144E02146304600F044FB0028EED0C9
:101C80004FF0FF30D5E0039A111D12680391002A2E
:101C900080F28C80524243F002000792049098F840
:101CA00000302E2B00F08480032298F80010654845
:101CB00000F0C8FC48B14023CBEB000003FA00F071
:101CC000049B08F101081843049098F800100622BC
:101CD0005D4808F101078DF8281000F0B3FC0028DA
:101CE00000F09580594B002B40F08880039B073310
:101CF00023F0070308330393099B53440993B84621
:101D0000454615F8013B1BB9B8EB07090FD003E0B6
:101D1000252BF9D0A846F3E74B463A4621463046F4
:101D2000FFF76CFF01307FD0099B4B44099398F873
:101D30000030002B78D000234FF0FF32049307933C
:101D4000059206938DF853301A93012705222978BE
:101D50003F4800F077FC05F10108049B38B13C4A8C
:101D60004546801A07FA00F018430490EEE7D906BA
:101D700044BF20228DF853201A0744BF2B228DF830
:101D800053202A782A2A3FF47EAF079A00210A209E
:101D9000A84698F800300135303B092B03D800FBEA
:101DA00002320121F4E700293FF479AF079276E788
:101DB00098F801302A2B0BD1039B08F102081A1D59
:101DC0001B680392002BB8BF4FF0FF3305936BE7FE
:101DD00000231946059308F101000A25804698F86A
:101DE00000200130303A092A03D805FB01210123E4
:101DF000F4E7002B3FF458AF059155E703AB009390
:101E00002246144B04A93046AFF3008007E003AB31
:101E1000009322460F4B04A9304600F093F8B0F12E
:101E2000FF3F82467FF468AFA3895B063FF528AF8A
:101E300009981DB0BDE8F08FF8280008182900089F
:101E4000382900085E290008622900080000000007
:101E500058290008FD1B00082DE9F04791461F4650
:101E60000A698B6806469342B8BF1346C9F800302A
:101E700091F843200C46DDF8208012B10133C9F8F7
:101E800000302368990642BFD9F800300233C9F800
:101E90000030256815F0060510D104F1190A07E095
:101EA0000123524639463046C04701301AD0013529
:101EB000E368D9F800209B1A9D42F1DB94F8433087
:101EC0002268003318BF012392060FD5E118302095
:101ED00081F843005A1C94F845102244023382F8DA
:101EE000431003E04FF0FF30BDE8F08704F14302F8
:101EF00039463046C0470130F4D02268D9F8005046
:101F0000E36802F00602042A08BF5D1B2269A36889
:101F10000CBF25EAE57500259342C4BF9B1AED1856
:101F20004FF000091A344D4509D0012322463946A5
:101F30003046C0470130D5D009F10109F3E7002050
:101F4000BDE8F0872DE9F04317460A7E85B06E2A7A
:101F5000984606460C460C9B01F1430E00F0AE80FD
:101F600011D8632A22D009D8002A00F0BB80582A51
:101F700040F0CA8081F84520834955E0642A1ED08C
:101F8000692A1CD0C0E0732A00F0B08009D86F2AFB
:101F90002ED0702A40F0B8800A6842F020020A6011
:101FA0003EE0752A24D0782A3AD0ADE01A6801F1D3
:101FB0004205111D1960136884F84230A8E02168B9
:101FC0001A6811F0800F02D0111D196008E011F09D
:101FD000400F02F10401196002D0B2F9003000E0B4
:101FE0001368002B3CDA2D225B4284F8432037E053
:101FF00021681A6811F0800F02D0111D196007E0E6
:1020000011F0400F02F10401196001D0138800E0C3
:102010001368227E5C496F2A14BF0A2208221BE043
:1020200078225A4984F845202268186812F0800FF7
:1020300000F104051D6003D1550601D5038800E0B9
:102040000368D00744BF42F0200222601BB9226817
:1020500022F0200222601022002084F8430001E0D8
:1020600049490A226568002DA56008DB206820F038
:10207000040020602BB9002D7DD175460CE0002BAB
:1020800079D07546B3FBF2F002FB1033CB5C05F858
:10209000013D03460028F5D1082A0BD12368DA0751
:1020A00008D5236962689A42DEBF302305F8013CF7
:1020B00005F1FF35C5EB0E0323612EE008681A68B1
:1020C00010F0800F496903D0101D1860136808E0F4
:1020D00010F0400F02F104001860136801D019805D
:1020E00000E0196000232361754616E01A68111D8F
:1020F0001960156800216268284600F0A3FA08B14B
:10210000401B6060636804E004F1420584F84220EB
:1021100001232361002384F84330CDF800803B463F
:1021200003AA21463046FFF797FE013002D14FF057
:10213000FF3026E023692A4639463046C047013041
:10214000F5D023689B0710D5002504F1190907E095
:1021500001234A4639463046C0470130E7D00135B1
:10216000E368039A9B1A9D42F2DBE068039B984266
:10217000B8BF184605E00B7804F1420584F84230F8
:102180008AE705B0BDE8F083692900087A290008CC
:1021900038B5064C002305460846236000F060FB76
:1021A000431C02D1236803B12B6038BDB802002064
:1021B00010B50C46B1F90E1000F0ECFA0028ABBFD8
:1021C000636DA3891B1823F48053ACBF6365A3819F
:1021D00010BD2DE9F0411F468B890546DB050C46F5
:1021E000164605D502230022B1F90E1000F0B8F909
:1021F000A389324623F48053A381B4F90E103B46E1
:102200002846BDE8F04100F06BB810B50C46B1F9B6
:102210000E1000F0A5F9431CA38915BF606523F4D7
:10222000805343F48053A38118BFA38110BDB1F93B
:102230000E1000F0D5B80000F8B50F46144606465B
:1022400018B183690BB9FFF78DFA224B9C4201D17B
:10225000746808E0204B9C4201D1B46803E01F4B36
:102260009C4208BFF468A369A360A3891A0709D533
:1022700023693BB123682069FDB2181A636998424B
:102280000FDB08E02146304600F03CF80028F1D092
:102290004FF0FF30F8BD2146304600F037F90028F6
:1022A000F6D1A368013BA36023685A1C22601F700B
:1022B0006269431C934204D0A389DB0707D50A2D2A
:1022C00005D12146304600F021F90028E0D128460A
:1022D000F8BD00BFF82800081829000838290008B0
:1022E00038B5074C054608461146002222601A46BA
:1022F000FDF7E4FF431C02D1236803B12B6038BD16
:10230000B8020020324B70B51D6806460C4625B158
:10231000AB6913B92846FFF725FA2E4B9C4201D131
:102320006C6808E02C4B9C4201D1AC6803E02B4B5D
:102330009C4208BFEC68B4F90C309AB215071DD462
:10234000D00602D4092232603AE0510712D5616BFF
:1023500041B104F14403994202D0304600F0A8F99B
:1023600000236363A38923F02403A3810023636014
:1023700023692360A38943F00803A38123694BB930
:10238000A38903F42073B3F5007F03D021463046C0
:1023900000F01CF9A28912F0010305D00023A3600C
:1023A00063695B42A36103E0920758BF6369A3605E
:1023B00023695BB9B4F90C3003F0800080B230B10E
:1023C00043F04003A3814FF0FF3070BD002070BD8B
:1023D00078000020F828000818290008382900088B
:1023E00038B5064C002305460846236000F010FA75
:1023F000431C02D1236803B12B6038BDB802002012
:102400008A892DE9F041054610070C4659D44B68DE
:10241000002B02DC0B6C002B17DDE66AAEB102F478
:102420008052002392B22F682B600AB1606D15E0D4
:10243000216A01232846B047411C0FD12B686BB19C
:102440001D2B01D0162B03D12F600020BDE8F08199
:10245000A38943F04003A381BDE8F081A3895A0713
:1024600005D56368C01A636B0BB1236CC01A0023D7
:102470000246E66A216A2846B047431CA38906D172
:1024800029681D2939D8204ACA40D60735D50022E7
:1024900062602269D904226004D5421C01D12B68F4
:1024A00003B96065616B2F600029CED004F144034D
:1024B000994202D0284600F0FBF800206063BDE896
:1024C000F0810F69002FC0D093070E680CBF4B69D5
:1024D0000023C7EB06080F608B6002E00744C0EBE7
:1024E0000808B8F1000FB0DD43463A46216A284695
:1024F000A66AB0470028F1DCA38943F04003A3811A
:102500004FF0FF30BDE8F0810100402038B50B6985
:1025100005460C46DBB118B183690BB9FFF722F908
:102520000C4B9C4201D16C6808E00B4B9C4201D1E2
:10253000AC6803E0094B9C4208BFEC68B4F90C306E
:102540002BB121462846BDE83840FFF759BF00208F
:1025500038BD00BFF82800081829000838290008ED
:1025600038B5074C054608461146002222601A4637
:1025700000F066F9431C02D1236803B12B6038BD1B
:10258000B802002070B50E46B1F90E1090B00029C7
:1025900014461D4606DA00232B60B3891A060ED5B1
:1025A00040230EE001AA00F007F90028F3DB029AAD
:1025B00002F47042A2F500535A425A412A604FF485
:1025C00080630020236010B070BD00008B8973B55C
:1025D0009E0705460C4610D401AB6A46FFF7D2FFB2
:1025E000009906462846FFF747F968B9B4F90C3058
:1025F0009A0522D443F00203A38104F14703236028
:1026000023610123636118E00D4BAB62A389206055
:1026100043F08003A381009B20616361019B4BB168
:10262000B4F90E10284600F0D9F818B1A38943F088
:102630000103A381A0893043A08102B070BD00BF17
:10264000E516000810B5C9B202449042034605D011
:102650001C7801308C42F8D1184610BD002010BD06
:1026600010B5431E0A44914204D011F8014B03F8FF
:10267000014FF8E710BD884210B501EB020301D805
:10268000421E0BE09842FBD28118D21AD34204D0EA
:1026900013F8014D01F8014DF8E710BD994204D03F
:1026A00011F8014B02F8014FF8E710BD7047704771
:1026B00038B50546002944D051F8043C0C1F002BC6
:1026C000B8BFE418FFF7F2FF1E4A1368114613B9AA
:1026D0006360146030E0A3420DD92268A0188342E1
:1026E00001BF18685B681218226063600C6023E009
:1026F000A24203D813465A68002AF9D1186819185B
:10270000A1420BD12168014458188242196013D1AB
:1027100010685268014419605A600DE002D90C2318
:102720002B6009E021686018824201BF106852687E
:102730000918216062605C602846BDE83840FFF7F8
:10274000B6BF38BDB0000020F8B5074615460E46A6
:1027500021B91146BDE8F840FFF78EB81AB9FFF766
:10276000A7FF2846F8BD00F049F885420ED9294652
:102770003846FFF781F8044650B131462A46FFF744
:102780006FFF31463846FFF793FF01E03046F8BD52
:102790002046F8BD38B5074C0546084611460022CC
:1027A00022601A4600F054F8431C02D1236803B19A
:1027B0002B6038BDB802002038B5074C0023054611
:1027C00008461146236000F02BF8431C02D1236811
:1027D00003B12B6038BD00BFB802002038B5064CED
:1027E000002305460846236000F022F8431C02D16E
:1027F000236803B12B6038BDB802002051F8040CE7
:102800000028BEBF091851F8043CC01804387047AE
:10281000024B58221A604FF0FF307047B802002078
:10282000024B58221A604FF0FF307047B802002068
:10283000024B58221A600020704700BFB8020020E7
:10284000024B58221A604FF0FF307047B802002048
:10285000024B58221A604FF0FF307047B802002038
:10286000044B0246196809B9034919601868024403
:102870001A607047B4000020C0020020FEE700008C
:10288000F8B500BFF8BC08BC9E467047F8B500BF5D
:10289000F8BC08BC9E46704725732C25732C257305
:1028A0002C25732C0A000000706169720000000082
:1028B000257800005458310073796E632C25782CEC
:1028C0005458312C747275650A0000006C6F636B8C
:1028D000000000002E25732C25732C25732C2573E6
:1028E0002C0A00005458323A2000000070696E67CC
:1028F000004300001800002000000000000000005D
:1029000000000000000000000000000000000000C7
:1029100000000000000000000000000000000000B7
:1029200000000000000000000000000000000000A7
:102930000000000000000000000000000000000097
:102940000000000000000000000000000000000087
:102950000000000000000000232D302B2000686CD8
:102960004C006566674546470030313233343536B2
:1029700037383941424344454600303132333435EB
:102980003637383961626364656600000000000014
:08299000B8D7FF7F0100000031
:10299800010000000000000001020304010203041A
:1029A800060708090204060800000000F8280008C5
:1029B800182900083829000800000000000000005D
:1029C8000000000000000000F128000800000000DE
:1029D80000000000000000000000000000000000EF
:1029E80000000000000000000000000000000000DF
:1029F80000000000000000000000000000000000CF
:102A0800000000000000000018000020110100086C
:042A1800ED000008C5
:0400000508000000EF
:00000001FF
