:020000040800F2
:100000000050002071110008B7110008B911000854
:10001000BB110008BD110008BF110008000000005E
:10002000000000000000000000000000C1110008F6
:10003000C311000800000000C5110008A901000854
:10004000CB110008CD110008CF110008D111000814
:10005000D3110008D5110008D7110008D9110008E4
:10006000DB110008DD110008DF110008E1110008B4
:10007000E3110008E5110008E7110008E911000884
:10008000EB110008ED110008EF110008F111000854
:10009000F3110008F5110008F7110008F911000824
:1000A000FB110008FD110008FF11000801120008F3
:1000B00003120008051200080712000809120008C0
:1000C0000B1200080D1200080F1200081112000890
:1000D000131200084904000817120008F903000869
:1000E0001B1200081D1200081F12000810B5054C55
:1000F000237833B9044B13B10448AFF300800123D4
:10010000237010BD8400002000000000142E0008A1
:1001100008B5034B1BB103490348AFF3008008BD8A
:100120000000000088000020142E0008A3F5803A8B
:10013000704700BF174B002B08BF134B9D46FFF7BE
:10014000F5FF00218B460F461348144A121A01F09E
:1001500051FC0E4B002B00D098470D4B002B00D0CC
:1001600098470020002104000D000D48002802D00F
:100170000C48AFF3008001F019FC2000290000F0CA
:100180000FFF01F0FFFB00BF0000080000000000AF
:10019000000000000050002084000020C002002069
:1001A000000000000000000080B400AF044B1B689A
:1001B0000133034A136000BFBD4680BC704700BFD7
:1001C0000000002080B588B000AF0346FB8001210D
:1001D00044F2040000F072FBFB883B610023BB8209
:1001E0000023FB8200233B830023BB830C237B8300
:1001F00007F1100319461B4800F09CFB012240F256
:100200002551184800F06FFC25233B730123FB7335
:1002100000237B730023BB7307F10C03184600F027
:1002200043F901210F4800F03FFC4FF400733B817C
:100230000123BB721823FB7207F1080319460A4811
:1002400000F094F94FF480633B810423FB7207F1C3
:1002500008031946044800F089F900BF2037BD465D
:1002600080BD00BF003801400008014080B487B065
:1002700000AFF860B9607A607B687B6111E000BF15
:100280000C4B1B889BB203F08003002BF8D0BB689B
:100290005A1CBA601A78074B92B29A807B69013B6C
:1002A0007B617B69002BEAD17B6818461C37BD4611
:1002B00080BC70470038014080B588B000AF7860DE
:1002C0000121082000F0FAFA01214FF4802000F00B
:1002D00013FB4FF48063BB811823FB730323BB73B1
:1002E00007F10C0319461D4800F040F94FF4006374
:1002F000BB810423FB7307F10C031946174800F078
:1003000035F97B683B610023BB820023FB8200231D
:100310003B830023BB830C237B8307F11003194627
:100320000F4800F007FB012240F225510C4800F075
:10033000DAFB27233B720123FB7200237B7200232D
:10034000BB7207F10803184600F0AEF8012104481B
:1003500000F0AAFB00BF2037BD4680BD000C014065
:100360000048004080B582B000AF78600B46FB705B
:100370007B6800229A80FB789BB21946786800F06F
:10038000F9FB00BF8021786800F014FC0346002BC5
:10039000F8D000BF00BF0837BD4680BD80B582B031
:1003A00000AF7860396008E03B681B7819467868D0
:1003B000FFF7D8FF3B6801333B603B681B78002B9D
:1003C000F2D100BF00BF0837BD4680BD80B584B004
:1003D00000AF786000BF2021786800F0EBFB034697
:1003E000002BF8D0786800F0D6FB0346FB73FB7B4C
:1003F00018461037BD4680BD80B582B000AF0F48AB
:10040000FFF7E4FF0346FB710D4B1B7819460D4ABD
:10041000FB7953540A4B1B780133DAB2084B1A703C
:10042000074B1B78013B074AD35C0A2B02D1044BD4
:1004300000221A7000BF0837BD4680BD004800404A
:10044000A0000020B000002080B582B000AF1348AB
:10045000FFF7BCFF0346FB71114B1B781946114A8D
:10046000FB7953540E4B1B780133DAB20C4B1A70E4
:100470000B4B1B78013B0B4AD35C0A2B09D1084B71
:100480001B78023B074AD35C0D2B02D1044B0022A0
:100490001A7000BF0837BD4680BD00BF003801405C
:1004A000A1000020B001002080B487B000AF7860C8
:1004B00000237B6100233B610F23FB607B68DB78BB
:1004C000002B3AD0274BDB68DB431B0A03F0070302
:1004D0007B617B69C3F104033B61FA687B6922FAA3
:1004E00003F3FB607B685B781A463B6902FA03F30F
:1004F0007B617B689B781A46FB6813407A691343DB
:100500007B617B691B017B61174A7B681B7879697A
:10051000C9B213440A4683F800237B681B7803F0B2
:100520001F0311497A6812785209D2B2104601228B
:1005300002FA03F341F820300FE07B681B7803F0E8
:100540001F0309497A6812785209D2B21046012273
:100550009A4000F1200341F8232000BF1C37BD461C
:1005600080BC704700ED00E000E100E080B489B09D
:1005700000AF786039600023FB6100233B610023FA
:10058000BB610023FB6000237B610023BB603B68F1
:10059000DB7803F00F03FB613B68DB7803F01003AB
:1005A000002B05D03B689B781A46FB691343FB611F
:1005B0003B681B88DBB2002B44D07B681B687B61E7
:1005C0000023BB6138E00122BB6902FA03F3FB6040
:1005D0003B681B881A46FB6813403B613A69FB681D
:1005E0009A4226D1BB699B00FB600F22FB6802FA8E
:1005F00003F3BB60BB68DB437A6913407B61FA6934
:10060000FB6802FA03F37A6913437B613B68DB788A
:10061000282B05D10122BB699A407B685A6108E00A
:100620003B68DB78482B04D10122BB699A407B6888
:100630001A61BB690133BB61BB69072BC3D97B68F6
:100640007A691A603B681B88FF2B46D97B685B6818
:100650007B610023BB613AE0BB690833012202FAE7
:1006600003F3FB603B681B881A46FB6813403B6141
:100670003A69FB689A4227D1BB699B00FB600F2255
:10068000FB6802FA03F3BB60BB68DB437A69134083
:100690007B61FA69FB6802FA03F37A6913437B61B1
:1006A0003B68DB78282B05D1BB69083301229A40CF
:1006B0007B685A613B68DB78482B05D1BB690833FE
:1006C00001229A407B681A61BB690133BB61BB6937
:1006D000072BC1D97B687A695A6000BF2437BD46B1
:1006E00080BC704780B485B000AF78600B467B80DB
:1006F0000023FB737B689A687B881340002B02D031
:100700000123FB7301E00023FB73FB7B18461437C6
:10071000BD4680BC704780B483B000AF78600B46A4
:100720007B807A887B681A6100BF0C37BD4680BC2D
:10073000704780B483B000AF78600B467B807A88C6
:100740007B685A6100BF0C37BD4680BC7047000013
:1007500080B487B000AF786000237B6100233B61E9
:100760000023FB600023BB604F4B5B6803F00C036E
:100770007B617B69082B11D07B69082B3AD87B6998
:10078000002B03D07B69042B04D033E07B68474AFD
:100790001A6033E07B68454A1A602FE0424B5B6881
:1007A00003F470133B61404B5B6803F48033FB60E0
:1007B0003B699B0C02333B61FB68002B06D13B6914
:1007C0003B4A02FB03F27B681A6017E0364B5B681A
:1007D00003F40033002B06D03B69354A02FB03F2D9
:1007E0007B681A600AE03B69304A02FB03F27B68CF
:1007F0001A6003E07B682D4A1A6000BF2A4B5B68D1
:1008000003F0F0037B617B691B097B61294A7B69EB
:1008100013441B78DBB2BB607B681A68BB68DA40A4
:100820007B685A60204B5B6803F4E0637B617B6903
:100830001B0A7B611F4A7B6913441B78DBB2BB60D8
:100840007B685A68BB68DA407B689A60164B5B68C5
:1008500003F460537B617B69DB0A7B61154A7B692A
:1008600013441B78DBB2BB607B685A68BB68DA4014
:100870007B68DA600C4B5B6803F440437B617B6907
:100880009B0B7B610C4A7B6913441B78DBB2BB601A
:100890007B68DA68BB68B2FBF3F27B681A6100BF61
:1008A0001C37BD4680BC70470010024000127A0021
:1008B00000093D00040000201400002080B483B033
:1008C00000AF78600B46FB70FB78002B06D0094B1D
:1008D0009A6908497B6813438B6106E0054B9A6966
:1008E0007B68DB43034913408B6100BF0C37BD4677
:1008F00080BC70470010024080B483B000AF7860C5
:100900000B46FB70FB78002B06D0094BDA690849CF
:100910007B681343CB6106E0054BDA697B68DB43F8
:1009200003491340CB6100BF0C37BD4680BC704704
:100930000010024080B58CB000AF786039600023B1
:10094000FB620023BB6200237B6200233B62002327
:10095000FB617B68FB617B681B8A9BB2FB62FA6A66
:100960004CF6FF731340FB623B68DB881A46FB6A58
:100970001343FB62FB6A9AB27B681A827B689B898D
:100980009BB2FB62FA6A4EF6F3131340FB623B68BC
:100990009A883B681B8913439AB23B685B8913436F
:1009A0009BB21A46FB6A1343FB62FB6A9AB27B68EE
:1009B0009A817B689B8A9BB2FB62FA6A4FF6FF437F
:1009C0001340FB623B689B891A46FB6A1343FB6238
:1009D000FB6A9AB27B689A8207F108031846FFF710
:1009E000B7FEFB692E4A934202D17B69BB6201E0EC
:1009F0003B69BB627B689B899BB21BB2002B0CDA04
:100A0000BA6A13469B0013449A001A443B681B6859
:100A10005B00B2FBF3F37B620BE0BA6A13469B0008
:100A200013449A001A443B681B689B00B2FBF3F323
:100A30007B627B6A1B4AA2FB03235B091B01FB62EF
:100A4000FB6A1B09642202FB03F37A6AD31A3B6236
:100A50007B689B899BB21BB2002B0CDA3B6ADB00E4
:100A60003233104AA2FB03235B0903F00703FA6A3F
:100A70001343FB620BE03B6A1B013233094AA2FBC2
:100A800003235B0903F00F03FA6A1343FB62FB6A5B
:100A90009AB27B681A8100BF3037BD4680BD00BF67
:100AA000003801401F85EB5180B483B000AF7860FF
:100AB0000B46FB70FB78002B08D07B689B899BB2B0
:100AC00043F400539AB27B689A8107E07B689B8964
:100AD0009BB223F400539AB27B689A8100BF0C3713
:100AE000BD4680BC704780B487B000AF78600B46CD
:100AF0007B8013467B7000233B610023FB60002357
:100B0000BB6000237B617B687B617B88DBB25B0918
:100B1000DBB23B617B8803F01F03FB600122FB68B3
:100B200002FA03F3BB603B69012B03D17B690C33F1
:100B30007B6109E03B69022B03D17B6910337B6148
:100B400002E07B6914337B617B78002B06D07B69E4
:100B500019687B69BA680A431A6006E07B691968FC
:100B6000BB68DA437B690A401A6000BF1C37BD4688
:100B700080BC704780B483B000AF78600B467B8048
:100B80007B88C3F308039AB27B689A8000BF0C3756
:100B9000BD4680BC704780B483B000AF78607B688E
:100BA0009B889BB2C3F308039BB218460C37BD4623
:100BB00080BC704780B485B000AF78600B467B8006
:100BC0000023FB737B681B889AB27B8813409BB21F
:100BD000002B02D00123FB7301E00023FB73FB7B9E
:100BE00018461437BD4680BC7047000080B582B0FF
:100BF00000AF01211020FFF761FE1023FB714FF4BD
:100C00000053BB800123BB713B1D19461048FFF701
:100C1000ADFC01210420FFF751FE4823FB710123A5
:100C2000BB800123BB713B1D19460A48FFF79EFCA0
:100C30001023FB714FF4E073BB800123BB713B1D9C
:100C400019460448FFF792FC00BF0837BD4680BD37
:100C5000001001400008014080B586B000AFF86088
:100C60000B467A607B817B891946F868FFF73AFD6D
:100C70000346012B01D10123FB757B891946F868D6
:100C8000FFF730FD0346002B07D1FB7D002B04D07E
:100C90000023FB757B6801221A7000BF1837BD4620
:100CA00080BD80B58AB000AFF860B9607A603B6003
:100CB000FB68002B64D0BB68002B61D07B68002BE5
:100CC0005ED03B68002B5BD03B6B002B58D0FB68A1
:100CD0007B627B6A3B622C21386A00F0CBFE786233
:100CE0007B6A002B02D07B6A00221A707B6A013378
:100CF0003B622C21386A00F0BDFE78627B6A002BD3
:100D000006D07B6A00221A70396AB86800F0BFFE0C
:100D10007B6A0133FB612C21F86900F0ABFE78623D
:100D20007B6A002B06D07B6A00221A70F96978680A
:100D300000F0ADFE7B6A0133BB612C21B86900F085
:100D400099FE78627B6A002B06D07B6A00221A70BB
:100D5000B969386800F09BFE7B6A01337B612C2106
:100D6000786900F087FE78627B6A002B06D07B6A88
:100D700000221A707969386B00F089FE012300E0C7
:100D8000002318462837BD4680BD000080B500AF5F
:100D90000E4A01210E48FFF75FFF0DE040210C488D
:100DA000FFF7B9FC0B4B1B689BB219460A4800F0D1
:100DB00029FE064B00221A70044B1B78002BEDD144
:100DC00040210348FFF7B5FC00BF80BDA200002012
:100DD00000080140E8F7FF1F582D000890B585B0C6
:100DE00000AF78606549786800F0E6FB03464FF095
:100DF0008141184600F094FC03466149184600F012
:100E000083FD0346002B04D00023FB810423BB8118
:100E100089E05A49786800F0CFFB03464FF08241E1
:100E2000184600F07DFC03465549184600F06CFD5D
:100E30000346002B04D00123FB810823BB8172E011
:100E40004E49786800F0B8FB03464FF083411846DE
:100E500000F066FC03464A49184600F055FD03467B
:100E6000002B04D00223FB811023BB815BE04349AC
:100E7000786800F0A1FB03464FF08441184600F06B
:100E80004FFC03463E49184600F03EFD0346002B4A
:100E900004D00323FB812023BB8144E037497868D9
:100EA00000F08AFB03464FF08541184600F038FCFD
:100EB00003463349184600F027FD0346002B04D0B3
:100EC0000423FB814023BB812DE02C49786800F08E
:100ED00073FB03464FF08641184600F021FC0346A1
:100EE0002749184600F010FD0346002B04D00523C7
:100EF000FB818023BB8116E02049786800F05CFB11
:100F000003464FF08741184600F00AFC03461C498F
:100F1000184600F0F9FC0346002B04D00623FB81A1
:100F20004FF48073BB811549786800F045FB034698
:100F30001C46BB89184600F0EBFA034619462046CA
:100F400000F0EEFB0346184600F0FCFC03467B81F4
:100F50000C4B45F255521A600A4AFB895360094A04
:100F60007B899360074B4AF6AA221A60054B4CF620
:100F7000CC421A6000BF1437BD4690BD00401C47EC
:100F800000007A450030004080B400AF034B4AF6C1
:100F9000AA221A6000BFBD4680BC704700300040E6
:100FA00080B58CB002AFFFF721FE4FF49660FFF7DB
:100FB00009F94FF4E130FFF77FF940216348FFF76B
:100FC000B8FB4FF480716148FFF7A5FB80215F48B3
:100FD000FFF7AFFB5E4B1B689AB23B465D49184674
:100FE00000F028FD5C48FFF7F9FEFFF7CDFF07F1A1
:100FF000200305220021184600F0FCFC07F118032D
:1010000007220021184600F0F5FC07F11003072223
:101010000021184600F0EEFC07F10803052200212C
:10102000184600F0E7FCFFF7B1FE4C4B1B78002B95
:1010300000F0878000BF0A21484800F01BFD0346EE
:10104000002BF8D007F1100007F1180207F120017A
:1010500007F10803009303464048FFF722FE07F11B
:1010600020033F49184600F022FD0346002B18D00C
:1010700007F110033121184600F0FCFC0346002B59
:101080000FD007F108033121184600F0F3FC0346A6
:10109000002B06D02E4B1B689BB21946314800F03E
:1010A000B1FC402200212D4800F0A4FC49E000BF23
:1010B0000A212D4800F0DEFC0346002BF8D007F192
:1010C000100007F1180207F1200107F1080300934F
:1010D00003462548FFF7E5FD07F118023B46114698
:1010E000184600F0E4FC0346002B0CD01E491F48B4
:1010F000FFF754F91C4800F0D2FC03461A460021C1
:10110000194800F077FC184800F0C9FC03461A465D
:101110000021154800F06EFC104800F0C0FC0346AA
:101120001A4600210D4800F065FC07F11803184627
:1011300000F0B5FC024607F118030021184600F044
:1011400059FC094B1B78002BB1D14EE70008014038
:10115000E8F7FF1F682D0008CDCC1C41B00000202F
:101160006C2D0008702D0008B001002000480040E0
:101170000649074A074B9A42BEBF51F8040B42F892
:10118000040BF8E70448804704480047202E000875
:10119000000000208400002029120008350100080A
:1011A0001F49204A002301E041F8043B9142FBD350
:1011B000FFF7F6FEFEE7FEE7FEE7FEE7FEE7FEE7E7
:1011C000FEE7FEE7FEE7FEE7FEE7FEE7FEE7FEE7F7
:1011D000FEE7FEE7FEE7FEE7FEE7FEE7FEE7FEE7E7
:1011E000FEE7FEE7FEE7FEE7FEE7FEE7FEE7FEE7D7
:1011F000FEE7FEE7FEE7FEE7FEE7FEE7FEE7FEE7C7
:10120000FEE7FEE7FEE7FEE7FEE7FEE7FEE7FEE7B6
:10121000FEE7FEE7FEE7FEE7FEE7FEE7FEE7FEE7A6
:1012200084000020C002002080B500AF154B1B6871
:10123000144A43F001031360124B5A681149124BD0
:1012400013404B600F4B1B680E4A23F0847323F44A
:10125000803313600B4B1B680A4A23F4802313600E
:10126000084B5B68074A23F4FE035360054B4FF4B9
:101270001F029A6000F00CF8044B4FF000629A6075
:1012800000BF80BD001002400000FFF800ED00E04C
:1012900080B500AF00F002F800BF80BD80B483B01D
:1012A00000AF00237B6000233B603A4B1B68394A48
:1012B00043F480331360374B1B6803F400333B6007
:1012C0007B6801337B603B68002B03D17B68B3F5FF
:1012D000A06FF0D12F4B1B6803F40033002B02D01A
:1012E00001233B6001E000233B603B68012B4BD1B5
:1012F000294B1B68284A43F010031360264B1B68D8
:10130000254A23F003031360234B1B68224A43F052
:10131000020313601F4B1F4A5B6853601D4B1D4A3D
:101320005B6853601B4B5B681A4A43F480635360ED
:10133000184B5B68174A23F47C135360154B5B68AA
:10134000144A43F4E8135360124B1B68114A43F0EC
:101350008073136000BF0F4B1B6803F00073002BFA
:10136000F9D00C4B5B680B4A23F003035360094B25
:101370005B68084A43F00203536000BF054B5B689B
:1013800003F00C03082BF9D100BF0C37BD4680BC1D
:10139000704700BF001002400020024080F0004073
:1013A00002E000BF81F0004142001FBF5FEA41033D
:1013B00092EA030F7FEA226C7FEA236C6AD04FEA3D
:1013C0001262D2EB1363C1BFD21841404840414082
:1013D000B8BF5B42192B88BF704710F0004F40F434
:1013E000000020F07F4018BF404211F0004F41F450
:1013F000000121F07F4118BF494292EA030F3FD01C
:10140000A2F1010241FA03FC10EB0C00C3F120032E
:1014100001FA03F100F0004302D5494260EB4000BD
:10142000B0F5000F13D3B0F1807F06D340084FEA28
:10143000310102F10102FE2A51D2B1F1004F40EB1D
:10144000C25008BF20F0010040EA03007047490085
:1014500040EB0000013A28BFB0F5000FEDD2B0FA22
:1014600080FCACF1080CB2EB0C0200FA0CF0AABF45
:1014700000EBC25052421843BCBFD04018437047E3
:1014800092F0000F81F4000106BF80F400000132E9
:10149000013BB5E74FEA41037FEA226C18BF7FEAC0
:1014A000236C21D092EA030F04D092F0000F08BF02
:1014B0000846704790EA010F1CBF0020704712F0E9
:1014C0007F4F04D1400028BF40F00040704712F128
:1014D00000723CBF00F50000704700F0004343F08D
:1014E000FE4040F4000070477FEA226216BF0846C3
:1014F0007FEA23630146420206BF5FEA412390EA86
:10150000010F40F4800070474FF0000304E000BF7B
:1015100010F0004348BF40425FEA000C08BF70472C
:1015200043F0964301464FF000001CE050EA0102F0
:1015300008BF70474FF000030AE000BF50EA010205
:1015400008BF704711F0004302D5404261EB4101F2
:101550005FEA010C02BF84460146002043F0B64317
:1015600008BFA3F18053A3F50003BCFA8CF2083A3C
:10157000A3EBC25310DB01FA02FC634400FA02FC45
:10158000C2F12002BCF1004F20FA02F243EB02004C
:1015900008BF20F00100704702F1200201FA02FCAE
:1015A000C2F1200250EA4C0021FA02F243EB0200A1
:1015B00008BF20EADC7070474FF0FF0C1CEAD052E5
:1015C0001EBF1CEAD15392EA0C0F93EA0C0F6FD0A6
:1015D0001A4480EA010C400218BF5FEA41211ED084
:1015E0004FF0006343EA501043EA5111A0FB013170
:1015F0000CF00040B1F5000F3EBF490041EAD37145
:101600005B0040EA010062F17F02FD2A1DD8B3F1C0
:10161000004F40EBC25008BF20F00100704790F02F
:10162000000F0CF0004C08BF49024CEA502040EA81
:1016300051207F3AC2BFD2F1FF0340EAC250704747
:1016400040F400004FF00003013A5DDC12F1190F85
:10165000DCBF00F000407047C2F10002410021FAF7
:1016600002F1C2F1200200FA02FC5FEA310040F10F
:10167000000053EA4C0308BF20EADC70704792F088
:10168000000F00F0004C02BF400010F4000F013AC0
:10169000F9D040EA0C0093F0000F01F0004C02BFBB
:1016A000490011F4000F013BF9D041EA0C018FE72A
:1016B0000CEAD15392EA0C0F18BF93EA0C0F0AD030
:1016C00030F0004C18BF31F0004CD8D180EA010056
:1016D00000F00040704790F0000F17BF90F0004FEF
:1016E000084691F0000F91F0004F14D092EA0C0FD1
:1016F00001D142020FD193EA0C0F03D14B0218BF64
:10170000084608D180EA010000F0004040F0FE40A9
:1017100040F40000704740F0FE4040F44000704745
:101720004FF0FF0C1CEAD0521EBF1CEAD15392EAC4
:101730000C0F93EA0C0F69D0A2EB030280EA010CB4
:1017400049024FEA402037D04FF0805343EA11114D
:1017500043EA10130CF000408B4238BF5B0042F1AB
:101760007D024FF4000C8B4224BF5B1A40EA0C0050
:10177000B3EB510F24BFA3EB510340EA5C00B3EB82
:10178000910F24BFA3EB910340EA9C00B3EBD10F70
:1017900024BFA3EBD10340EADC001B0118BF5FEAC2
:1017A0001C1CE0D1FD2A3FF650AF8B4240EBC250EB
:1017B00008BF20F0010070470CF0004C4CEA5020AC
:1017C0007F32C2BFD2F1FF0340EAC250704740F4FB
:1017D00000004FF00003013A37E792F0000F00F0ED
:1017E000004C02BF400010F4000F013AF9D040EA6B
:1017F0000C0093F0000F01F0004C02BF490011F4FF
:10180000000F013BF9D041EA0C0195E70CEAD153F6
:1018100092EA0C0F08D142027FF47DAF93EA0C0FDD
:101820007FF470AF084676E793EA0C0F04D14B02C1
:101830003FF44CAF08466EE730F0004C18BF31F073
:10184000004CCAD130F000427FF45CAF31F000436D
:101850007FF43CAF5FE700BF4FF0FF3C06E000BF06
:101860004FF0010C02E000BF4FF0010C4DF804CD29
:101870004FEA40024FEA41037FEA226C18BF7FEA39
:10188000236C11D001B052EA530C18BF90EA010F3B
:1018900058BFB2EB030088BFC81738BF6FEAE170CA
:1018A00018BF40F0010070477FEA226C02D15FEA66
:1018B000402C05D17FEA236CE4D15FEA412CE1D0D2
:1018C0005DF8040B704700BF844608466146FFE799
:1018D0000FB5FFF7C9FF002848BF10F1000F0FBD7B
:1018E0004DF808EDFFF7F4FF0CBF012000205DF874
:1018F00008FB00BF4DF808EDFFF7EAFF34BF0120F9
:1019000000205DF808FB00BF4DF808EDFFF7E0FF91
:1019100094BF012000205DF808FB00BF4DF808EDE2
:10192000FFF7D2FF94BF012000205DF808FB00BF45
:101930004DF808EDFFF7C8FF34BF012000205DF827
:1019400008FB00BF42000ED2B2F1FE4F0BD34FF0A6
:101950009E03B3EB126209D44FEA002343F0004325
:1019600023FA02F070474FF00000704712F1610F48
:1019700001D1420202D14FF0FF3070474FF000001A
:10198000704700BF08B5074B044613B10021AFF301
:101990000080054B1868836A03B19847204601F020
:1019A000CDF900BF000000007C2D000870B50026B6
:1019B0000C4D0D4C641BA410A64209D101F0C0F9D6
:1019C00000260A4D0A4C641BA410A64205D170BD26
:1019D00055F8043B98470136EEE755F8043B984725
:1019E0000136F2E77C0000207C0000207C00002013
:1019F0008000002003460244934200D1704703F860
:101A0000011BF9E70FB40A4B13B51C6824B1A36995
:101A100013B9204600F0BAF805AB2046049AA16835
:101A2000019300F031FB02B0BDE8104004B07047F4
:101A3000180000200EB46FF0004100B59CB01DAB43
:101A400002900690079104910848094953F8042B25
:101A50000591006802A9019300F0EEF90022029BB3
:101A60001A701CB05DF804EB03B07047180000203A
:101A70000802FFFF0346C9B2184613F8012B12B142
:101A80008A42F9D17047002918BF002070470346E9
:101A900011F8012B03F8012B002AF9D170470346F6
:101AA00013F8012B002AFBD1181A01387047F0B542
:101AB0000C7864B103461A7818465E1C0AB91046C1
:101AC00005E0944208D10D4615F8012F02B9F0BD8A
:101AD00013F8017F9742F7D03346ECE7002310B5A7
:101AE0000446C0E90033C0E9043383608181436662
:101AF000C2818361194608225C30FFF77BFF054BEA
:101B000024626362044BA362044BE362044B2363CD
:101B100010BD00BF35260008572600088F26000894
:101B2000B3260008014900F0AFB800BF8D290008B6
:101B300070B568254A1E55430E4605F1740100F044
:101B4000C5F8044640B10021C0E900160C30A06081
:101B500005F16802FFF74EFF204670BD014800F016
:101B6000B3B800BFB8020020014800F0AEB800BF13
:101B7000B8020020014800F0A7B800BFB30200205F
:101B8000014800F0A2B800BFB302002010B504461F
:101B9000FFF7F0FFA3691BB1BDE81040FFF7F0BFEE
:101BA000C4E912332365134B134A1B68A262A34294
:101BB00008BF0123204608BFA36100F01FF8606042
:101BC000204600F01BF8A060204600F017F8002225
:101BD0000421E0606068FFF781FF01220921A0680D
:101BE000FFF77CFF02221221E068FFF777FF012355
:101BF000A361D1E77C2D0008251B0008F8B5074636
:101C0000FFF7ACFF1E4B1E68B36913B93046FFF7F0
:101C1000BDFF4836D6E90134013B03D533680BB329
:101C20003668F7E7B4F90C50D5B9164B04F15800F3
:101C3000E360656600F047F8FFF796FF0822294643
:101C4000C4E90155C4E904552560A56104F15C00AF
:101C5000FFF7D0FEC4E90D55C4E912552046F8BD82
:101C60006834D9E704213846FFF762FF0446306044
:101C70000028D5D1FFF778FF0C233B60EEE700BFCB
:101C80007C2D00080100FFFF2DE9F8430646884639
:101C9000002700F14804D4E90195B9F1010905D5FF
:101CA0002468002CF7D13846BDE8F883AB89012BB6
:101CB00007D9B5F90E30013303D029463046C04765
:101CC00007436835E9E7704770477047F8B5CD1CA2
:101CD00025F0030508350C2D38BF0C25002D0646D0
:101CE00001DBA94203D90C2333600020F8BD00F0CA
:101CF00035FF21490A6814469CB9204F3B6823B937
:101D00002146304600F086FC38602946304600F017
:101D100081FC431C23D10C233046336000F024FFA8
:101D2000E3E723685B1B17D40B2B03D923601C4408
:101D3000256004E06368A2420CBF0B60536030462C
:101D400000F012FF04F10B00231D20F00700C21A5F
:101D5000CCD01B1AA350C9E722466468CCE7C41C48
:101D600024F00304A042E3D0211A304600F052FCD4
:101D70000130DDD1CFE700BFA4000020A800002083
:101D80002DE9F0478E6882469E420C4690461F46DB
:101D900038D88A8912F4906F32D0256809690133E6
:101DA000A5EB010965694B4405EB450505EBD575C8
:101DB0006D109D4238BF1D46530531D52946FFF7AA
:101DC00085FF064650B90C234FF0FF30CAF80030AB
:101DD000A38943F04003A381BDE8F0874A46216907
:101DE00000F094FEA38923F4906343F08003A38161
:101DF00026614E4426603E466561A5EB0905A56057
:101E0000BE4200D93E4632464146206800F08CFE74
:101E1000A36822689B1B32440020A3602260DBE79A
:101E20002A4600F0F3FE06460028E1D1504621691B
:101E300000F0A0FEC7E700002DE9F04F98468B891F
:101E400007461B060D4614469DB00ED50B6963B9B7
:101E50004021FFF73BFF2860286120B90C233B603D
:101E60004FF0FF30D1E040236B6100230993202322
:101E70008DF8293030234FF00109CDF80C80DFF8C0
:101E8000A4818DF82A3023469A4613F8012B0AB113
:101E9000252AF9D1BAEB040B0BD05B462246294622
:101EA0003846FFF76DFF013000F0AA80099A5A44C6
:101EB00009929AF80030002B00F0A28000234FF026
:101EC000FF32CDE905230AF1010A049307938DF847
:101ED00053301A935446052214F8011B514800F060
:101EE00007FE049AD8B9D00644BF20238DF853309A
:101EF000110744BF2B238DF853309AF800302A2B5A
:101F000015D0544600204FF00A0C079A214611F8CC
:101F1000013B303B092B4ED9B0B1079214E0A0EB46
:101F2000080309FA03F31343A2460493D2E7039B81
:101F3000191D1B680391002BBBBF5B4242F00202DC
:101F400007930793B8BF049223782E2B0CD16378A4
:101F50002A2B35D1039B02341A1D1B680392002BD8
:101F6000B8BF4FF0FF330593DFF8C8A003225046F7
:101F7000217800F0BDFD40B14023A0EB0A0003FA38
:101F800000F0049B01340343049314F8011B062260
:101F900025488DF8281000F0ABFD002838D0234BE1
:101FA0001BBB039B073323F0070308330393099BF1
:101FB0003344099367E70C4601200CFB0232A5E786
:101FC00000234FF00A0C194601340593204610F8FF
:101FD000012B303A092A03D9002BC5D00591C3E75C
:101FE000044601230CFB0121F0E703AB00932A46D2
:101FF00038460F4B04A9AFF30080421C0646D6D1E9
:10200000AB895B063FF52CAF09981DB0BDE8F08F9A
:1020100003AB00932A463846054B04A900F0D4F9D7
:10202000EBE700BFE02D0008EA2D000800000000EB
:10203000811D0008E62D0008936810B4013B002BB9
:10204000936007DA9469A34201DB0A2902D110BC2C
:1020500000F034BB1368581C10601970084610BC9F
:102060007047F8B506460F461446D518AC4201D164
:10207000002007E03A46304614F8011BFFF7DCFF6A
:10208000431CF3D1F8BD00002DE9F04F0D46144676
:10209000984606469DB018B183690BB9FFF776FDE7
:1020A000894B9D421BD175686B6ED90705D4AB89EE
:1020B0009A0502D4A86DFFF707FEAB891B0701D56F
:1020C0002B69EBB92946304600F05CFBC0B16B6E62
:1020D000DC070ED54FF0FF301DB0BDE8F08F7B4B15
:1020E0009D4201D1B568DFE7794B9D4208BFF56895
:1020F000DAE7AB899805EDD4A86DFFF7E6FDE9E7CF
:102100000023099320238DF8293030234FF0010953
:10211000CDF80C80DFF8BC818DF82A3023469A4632
:1021200013F8012B0AB1252AF9D1BAEB040B0BD015
:102130005B46224629463046FFF793FF013000F008
:10214000AA80099A5A4409929AF80030002B00F0AC
:10215000A28000234FF0FF32CDE905230AF1010AE6
:10216000049307938DF853301A935446052214F8BC
:10217000011B584800F0BCFC049AD8B9D10644BFF2
:1021800020238DF85330130744BF2B238DF8533091
:102190009AF800302A2B15D0544600204FF00A0C34
:1021A000079A214611F8013B303B092B4ED9B0B1BB
:1021B000079214E0A0EB080309FA03F31343A246C5
:1021C0000493D2E7039B191D1B680391002BBBBF2F
:1021D0005B4242F0020207930793B8BF0492237850
:1021E0002E2B0CD163782A2B35D1039B02341A1D78
:1021F0001B680392002BB8BF4FF0FF330593DFF845
:10220000E4A003225046217800F072FC40B1402344
:10221000A0EB0A0003FA00F0049B0134034304938B
:1022200014F8011B06222C488DF8281000F060FCE1
:1022300000283FD0294B1BBB039B073323F0070328
:1022400008330393099B3B44099367E70C4601203D
:102250000CFB0232A5E700234FF00A0C19460134AB
:102260000593204610F8012B303A092A03D9002B98
:10227000C5D00591C3E7044601230CFB0121F0E71B
:1022800003AB00932A463046154B04A9AFF30080F8
:102290000746781CD6D16B6ED90705D4AB899A0551
:1022A00002D4A86DFFF711FDAB895B063FF512AFB5
:1022B000099811E703AB00932A463046084B04A95E
:1022C00000F082F8E4E700BFA02D0008C02D000850
:1022D000802D0008E02D0008EA2D00080000000015
:1022E00063200008E62D00082DE9F04716469946C0
:1022F0008A680B6907469342B8BF1346336091F86A
:1023000043200C46DDF820800AB101333360236896
:10231000990642BF336802333360256815F006051D
:1023200006D104F1190AE36832689B1AAB4228DC33
:1023300094F84320131E226818BF012392062DD45F
:102340004946384604F14302C047013020D0236893
:10235000E56803F00603042B18BF002532684FF030
:102360000006A36808BFAD1A226908BF25EAE57513
:102370009342C4BF9B1AED181A34B5421AD10020FB
:1023800008E00123524649463846C047013003D190
:102390004FF0FF30BDE8F0870135C4E73020E11889
:1023A00081F843005A1C94F845102244023382F805
:1023B0004310C5E70123224649463846C04701304D
:1023C000E6D00136D9E700002DE9FF470C46277E0D
:1023D0009146782F80469A460C9904F1430207D81B
:1023E000622F0AD8002F00F0D980582F00F0A48067
:1023F00004F1420684F842703AE0A7F16303152B1A
:10240000F6D801A050F823F06124000875240008D4
:10241000F1230008F1230008F1230008F12300084C
:1024200075240008F1230008F1230008F1230008B7
:10243000F123000883250008A5240008652500086D
:10244000F1230008F1230008A5250008F123000866
:10245000A5240008F1230008F12300086D250008D9
:102460000B6804F142061A1D1B680A6084F84230AA
:102470000123A4E0256808682E0600F104030AD5AC
:1024800005680B60002D03DA2D236D4284F843307C
:102490000A235E4819E015F0400F05680B6018BF6D
:1024A0002DB2EFE70B682568181D0860280601D5D6
:1024B0001D6802E06906FBD51D886F2F0CBF08233D
:1024C0000A235248002184F843106668002EA8BFF2
:1024D0002168A660A4BF21F0040121600DB9002E7F
:1024E0004DD01646B5FBF3F103FB1157C75D06F857
:1024F000017D2F46BB420D46F4D9082B0BD1236832
:10250000DF0708D5236961689942DEBF302306F8EA
:10251000013C06F1FF36921B22614B4621464046A4
:10252000CDF800A003AAFFF7DFFE01304CD14FF039
:10253000FF3004B0BDE8F087344884F845700E6879
:10254000236856F8045B1F060E6014D5D90744BFF4
:1025500043F0200323601DB9236823F02003236088
:102560001023AFE7236843F0200323607823284833
:1025700084F84530E3E75E0648BFADB2E6E71646AD
:10258000BBE70B6826681D1D60690D6035061B687A
:1025900001D5186002E07106FBD5188000231646AD
:1025A0002361BAE70B681A1D0A601E6800213046D5
:1025B000626800F09DFA08B1801B60606368236167
:1025C000002384F84330A8E7324649464046236951
:1025D000D0470130ABD023689B0713D4E068039B3E
:1025E0009842B8BF1846A4E7012332464946404600
:1025F000D04701309BD00135E36803995B1AAB42A9
:10260000F2DCEBE7002504F11906F5E7F12D0008EF
:10261000022E000838B50023054D044608462B60FD
:1026200000F07EFB431C02D12B6803B1236038BD50
:10263000BC02002010B50C46B1F90E1000F00CFBE6
:102640000028ABBF636DA3891B1823F48053ACBF74
:102650006365A38110BD2DE9F0411F468B890546B6
:10266000DB050C46164605D502230022B1F90E10F3
:1026700000F0C8F9A389324623F48053A381284689
:102680003B46B4F90E10BDE8F04100F069B810B552
:102690000C46B1F90E1000F0B5F9431CA38915BF23
:1026A000606523F4805343F48053A38118BFA38152
:1026B00010BDB1F90E1000F0D3B80000F8B50E4609
:1026C0001446054618B183690BB9FFF75FFA214B31
:1026D0009C422BD16C68A369A360A3891A072FD5EC
:1026E00023696BB323692068F6B2C01A6369374661
:1026F000834204DC2146284600F048F930BBA36839
:102700000130013BA36023685A1C22601E7063697C
:10271000834204D0A389DB0706D50A2E04D12146C3
:10272000284600F033F988B93846F8BD0A4B9C4278
:1027300001D1AC68CFE7094B9C4208BFEC68CAE7FF
:102740002146284600F01EF80028CBD04FF0FF3776
:10275000EAE700BFA02D0008C02D0008802D00086A
:1027600038B50446084611460022054D2A601A462F
:10277000FDF77CFD431C02D12B6803B1236038BDFB
:10278000BC020020324B70B51D6806460C4625B1D0
:10279000AB6913B92846FFF7F9F92E4B9C420FD1CC
:1027A0006C68A389B4F90C2019072CD4DD0611D468
:1027B0000923336042F040034FF0FF30A3813EE035
:1027C000254B9C4201D1AC68EBE7244B9C4208BFEF
:1027D000EC68E6E7580712D5616B41B104F1440398
:1027E000994202D0304600F0C5F900236363A38903
:1027F00023F02403A3810023636023692360A3895A
:1028000043F00803A38123694BB9A38903F4207320
:10281000B3F5007F03D02146304600F029F9A089A6
:10282000B4F90C2010F001030AD00023A3606369FF
:102830005B42A361236943B910F08000BAD170BD37
:10284000810758BF6369A360F4E70020F7E700BF82
:1028500018000020A02D0008C02D0008802D0008C1
:1028600038B50023054D044608462B6000F030FAC9
:10287000431C02D12B6803B1236038BDBC02002089
:102880008A892DE9F041054610070C4658D44B685B
:10289000002B05DC0B6C002B02DC0020BDE8F08176
:1028A000E66A002EF9D0002312F480522F682B60C4
:1028B00032D0606DA3895A0705D56368C01A636B6F
:1028C0000BB1236CC01A00230246E66A2846216A2F
:1028D000B047431CA38906D129681D292CD82A4A50
:1028E000CA40D60728D5002262602269D904226036
:1028F00004D5421C01D12B6803B96065616B2F6060
:102900000029CAD004F14403994202D0284600F0BD
:1029100031F900206063C1E7216A01232846B047EE
:10292000411CC7D12B68002BC4D01D2B01D0162B06
:1029300001D12F60B1E7A38943F04003A381ADE744
:102940000F69002FA9D0930718BF00230E6808BF96
:102950004B69A6EB07080F608B60B8F1000F9CDD98
:1029600043463A462846216AA66AB047002806DC54
:10297000A3894FF0FF3043F04003A3818EE7074463
:10298000A8EB0008E9E700BF0100402038B50B695B
:1029900005460C4613B90025284638BD18B1836991
:1029A0000BB9FFF7F3F8144B9C421BD16C68B4F9D8
:1029B0000C30002BEFD0626ED00704D4990502D4FE
:1029C000A06DFFF781F928462146FFF759FF636E96
:1029D0000546DA07E0D4A3899B05DDD4A06DFFF797
:1029E00074F9D9E7054B9C4201D1AC68DFE7044B91
:1029F0009C4208BFEC68DAE7A02D0008C02D000853
:102A0000802D000838B50446084611460022054DC1
:102A10002A601A4600F074F9431C02D12B6803B1F6
:102A2000236038BDBC02002070B50E46B1F90E100F
:102A3000144600291D4696B007DA00232B60B3899F
:102A40001A0610D44FF480630EE06A4600F016F9BF
:102A50000028F2DB019A02F47042A2F500535A42B8
:102A60005A412A60EEE740230020236016B070BD73
:102A70008B8973B59D0706460C4607D504F14703BD
:102A8000236023610123636102B070BD6A4601AB1C
:102A9000FFF7CAFF009905463046FFF717F948B916
:102AA000B4F90C309A05EFD423F0030343F002038A
:102AB000A381E3E70D4BB362A389206043F0800359
:102AC000A381009B20616361019B5BB13046B4F937
:102AD0000E1000F0E5F828B1A38923F0030343F0BA
:102AE0000103A381A0890543A581CDE7251B00082B
:102AF000034610B5C9B202449342184601D10020E2
:102B000003E0047801338C42F6D110BD0A449142AF
:102B100000F1FF3300D1704710B511F8014B91421D
:102B200003F8014FF9D110BD884210B501EB020442
:102B300002D98442234607D8431EA14208D011F887
:102B4000012B03F8012FF8E7014602448A4200D125
:102B500010BD13F8014D02F8014DF7E70148FFF7EA
:102B6000B3B800BFB40200200148FFF7AEB800BF01
:102B7000B402002038B50546002943D051F8043C82
:102B80000C1F002BB8BFE418FFF7E8FF1E4A1368BC
:102B9000104633B9636014602846BDE83840FFF73B
:102BA000E3BFA3420AD921686218934201BF1A68A1
:102BB0005B685218226063600460EDE71A465B6848
:102BC0000BB1A342FAD911685018A0420BD120686A
:102BD0000144501883421160DED118685B680144DB
:102BE00011605360D8E702D90C232B60D4E720682A
:102BF00021188B4201BF19685B6809182160636066
:102C00005460C9E738BD00BFA4000020F8B50746EE
:102C100014460E4621B91146BDE8F840FFF756B8F4
:102C200022B9FFF7A7FF25462846F8BD00F048F86F
:102C3000A0420FD221463846FFF748F80546002843
:102C4000F2D031462246FFF761FF31463846FFF7A2
:102C500091FFE9E73546E7E738B5044608461146EF
:102C60000022054D2A601A4600F052F8431C02D19A
:102C70002B6803B1236038BDBC02002038B50023A7
:102C8000064D0446084611462B6000F029F8431C07
:102C900002D12B6803B1236038BD00BFBC02002005
:102CA00038B50023054D044608462B6000F020F897
:102CB000431C02D12B6803B1236038BDBC02002045
:102CC00051F8043C181F002BBCBF0B58C0187047AC
:102CD0005822024B4FF0FF301A607047BC020020B0
:102CE0005822024B4FF0FF301A607047BC020020A0
:102CF0005822024B00201A60704700BFBC0200201F
:102D00005822024B4FF0FF301A607047BC0200207F
:102D10005822024B4FF0FF301A607047BC0200206F
:102D2000044A05491368002B08BF0B46184410607D
:102D300018467047AC000020C0020020FEE700BF2C
:102D4000F8B500BFF8BC08BC9E467047F8B500BF98
:102D5000F8BC08BC9E46704770612C25782C312C3D
:102D6000312C0D0A0000000025780000637400007B
:102D700063742C25782C312C312C0A001C00002087
:102D80000000000000000000000000000000000043
:102D90000000000000000000000000000000000033
:102DA0000000000000000000000000000000000023
:102DB0000000000000000000000000000000000013
:102DC0000000000000000000000000000000000003
:102DD00000000000000000000000000000000000F3
:102DE000232D302B2000686C4C00656667454647F4
:102DF0000030313233343536373839414243444577
:102E000046003031323334353637383961626364E5
:082E10006566000000000000EF
:082E180014D3FF7F010000004C
:102E2000010000000000000001020304010203048D
:102E300006070809020406081C0000200000000024
:102E4000A02D0008C02D0008802D00080000000003
:102E50000000000000000000000000000000000072
:102E60000000000000000000000000000000000062
:102E70000000000000000000000000000000000052
:102E80000000000000000000000000000000000042
:102E90000000000000000000000000001101000818
:042EA000ED00000839
:0400000508000000EF
:00000001FF
